:020000040800F2
:1000000070060020750100087D0100087F010008CE
:10001000810100088301000885010008000000003C
:100020000000000000000000000000008701000840
:1000300089010008000000008B0100088D01000804
:100040008F0100088F0100088F0100088F01000850
:100050008F0100088F0100088F0100088F01000840
:100060008F0100088F0100088F0100088F01000830
:100070008F0100088F0100088F0100088F01000820
:100080008F0100088F0100088F0100088F01000810
:100090008F0100088F0100088F0100088F01000800
:1000A0008F0100088F0100088F0100088F010008F0
:1000B0008F0100088F0100088F0100088F010008E0
:1000C0008F0100088F0100088F0100088F010008D0
:1000D0008F0100088F0100088F0100088F010008C0
:1000E0008F0100088F0100088F01000800F002F85E
:1000F00000F031F80AA090E8000C82448344AAF191
:100100000107DA4501D100F026F8AFF2090EBAE88E
:100110000F0013F0010F18BFFB1A43F0010318473B
:10012000300D0000400D00000023002400250026B3
:10013000103A28BF78C1FBD8520728BF30C148BF4A
:100140000B607047642900F07D80002070471FB568
:100150001FBD10B510BD00F02AF91146FFF7F7FFDB
:1001600000F0F4FD00F048F903B4FFF7F2FF03BC20
:1001700000F050F90948804709480047FEE7FEE7CC
:10018000FEE7FEE7FEE7FEE7FEE7FEE7FEE7FEE747
:1001900004480549054A064B70470000710A0008EB
:1001A000ED000008700000207006002070020020A2
:1001B000700200200FB41CB5074B06AA7B446946A9
:1001C0000090059800F0DBF80020694600F0EAF89E
:1001D0001CBC5DF814FB0000E50100002DE9F041B6
:1001E0000E460446002020622046E168884730B36E
:1001F000252805D0D4E901219047206A401CF2E768
:10020000E168204600278847050018D0A5F1410085
:10021000192802D820354FF4006732462946204677
:100220002760FFF78FFF40B1012804D0F61D26F0AC
:1002300007060836D8E7361DD6E72846DAE7206AEB
:10024000BDE8F0812DE9F0410646002410687529CB
:10025000314616A510D0AFF30080002802DA4042E4
:1002600013A507E031688A0701D512A502E0490706
:1002700004D511A5012401E0AFF3008000210A227A
:1002800006F1240709E0B0FBF2FCB0FBF2F302FB3D
:100290001C00303078541846491C0028F3D12346FE
:1002A0002A463046BDE8F04100F00BB800000000DF
:1002B0002D0000002B000000200000007047704758
:1002C00070472DE9F0470D4699469246044600F1E5
:1002D00024080168880604D5E06921F01001216036
:1002E00000E00120A84201DD471B00E00027A169D2
:1002F0007A1902EB0900081AA0612078C00602D41E
:100300002046AFF30080002608E0D4E901211AF866
:1003100006009047206A401C761C20624E45F4DBA4
:100320002078C0060AD52046AFF3008006E0D4E965
:10033000012130209047206A401C2062381EA7F11E
:100340000107F4DC07E0D4E9012118F80500904723
:10035000206A401C2062281EA5F10105F3DC20461E
:10036000AFF300802078000602D50220BDE8F087B8
:100370000120FBE701694A1C02610878704700B55B
:100380008FB0CDE901310021059105497944CDE9CE
:10039000031011466846FFF721FF0FB000BD0000B3
:1003A000E5FFFFFF0A6802F8010B0A607047754617
:1003B00000F02CF8AE4605006946534620F00700D1
:1003C000854618B020B5FFF7E3FEBDE820404FF0AA
:1003D00000064FF000074FF000084FF0000BAC464E
:1003E000ACE8C009ACE8C009ACE8C009ACE8C00999
:1003F00021F007018D46704710B50446AFF3008029
:100400002046BDE81040FFF7AFBE0000004870472F
:100410000000002001491820ABBEFEE726000200C4
:10042000704700002DE9F04740F60044C4F2010493
:100430002046402100F038FA142000F071FC2046DC
:10044000402100F033FA4FF08040002100F048FBDB
:100450004FF0804000F042FB092805D8204640219B
:1004600000F01CFA0028F3D04FF0804000F036FB7B
:100470004FF08040002100F033FB00BF4FF0804080
:1004800000F02CFB2C2805D82046402100F006FA6D
:100490000028F3D14FF0804000F020FB4FF0804067
:1004A000002100F01DFB00BF4FF0804000F016FB64
:1004B000592805D82046402100F0F0F90028F3D053
:1004C0004FF0804000F00AFB4FF08040002100F028
:1004D00007FB00BF4FF0804000F000FB5E2805D80E
:1004E0002046402100F0DAF90028F3D14FF0804097
:1004F00000F0F4FA40F2650540F26608C2F2000529
:100500000020C2F20008287015E000BF4FF08040C4
:1005100000F0E4FA98F800102D284FF0000088BF92
:10052000012040EA4100297888F80000481CC1B247
:100530000829287027D24FF08040002100F0D0FA1F
:100540004FF0804000F0CAFA402805D820464021EC
:1005500000F0A4F90028F3D04FF0804000F0BEFA7C
:100560004FF08040002100F0BBFA00BF4FF0804008
:1005700000F0B4FA4F28C9D82046402100F08EF987
:100580000028F3D1C2E740F267090020C2F2000957
:10059000287014E04FF0804000F0A0FA99F80010A5
:1005A0002D284FF0000088BF012040EA4100297843
:1005B00089F80000481CC1B20829287027D24FF0E2
:1005C0008040002100F08CFA4FF0804000F086FA65
:1005D000402805D82046402100F060F90028F3D0DB
:1005E0004FF0804000F07AFA4FF08040002100F098
:1005F00077FA00BF4FF0804000F070FA4F28C9D85A
:100600002046402100F04AF90028F3D1C2E740F229
:10061000680A0020C2F2000A287014E04FF08040FF
:1006200000F05CFA9AF800102D284FF0000088BF07
:10063000012040EA410029788AF80000481CC1B234
:100640000829287027D24FF08040002100F048FA96
:100650004FF0804000F042FA402805D82046402163
:1006600000F01CF90028F3D04FF0804000F036FA7B
:100670004FF08040002100F033FA00BF4FF080407F
:1006800000F02CFA4F28C9D82046402100F006F986
:100690000028F3D1C2E740F269070020C2F2000748
:1006A000287012E04FF0804000F018FA39782D28B9
:1006B0004FF0000088BF012040EA410029783870DF
:1006C000481CC1B20829287027D24FF08040002171
:1006D00000F006FA4FF0804000F000FA402805D8FC
:1006E0002046402100F0DAF80028F3D04FF0804097
:1006F00000F0F4F94FF08040002100F0F1F900BF64
:100700004FF0804000F0EAF94F28CBD82046402136
:1007100000F0C4F80028F3D1C4E740F26A060020D4
:10072000C2F20006287012E04FF0804000F0D6F9C7
:1007300031782D284FF0000088BF012040EA4100A9
:1007400029783070481CC1B20829287027D24FF090
:100750008040002100F0C4F94FF0804000F0BEF965
:10076000402805D82046402100F098F80028F3D012
:100770004FF0804000F0B2F94FF08040002100F0CF
:10078000AFF900BF4FF0804000F0A8F94F28CBD858
:100790002046402100F082F80028F3D1C4E798F801
:1007A000000099F800103A7808449AF800100844BC
:1007B00010443178C0B2884208BFBDE8F08700BF5E
:1007C000FEE700002DE9F041CA7802F00F0CD306D5
:1007D00044BF8B784CEA030C09880B0621D00568CE
:1007E00000234FF001084FF00F0E002608E000BF75
:1007F000282A08BF47610136082E03F104030FD0F1
:1008000008FA06F70F42F6D00EFA03F425EA0404BC
:100810000CFA03F5482A45EA0405E9D10761EAE73D
:100820000560B1F5807F38BFBDE8F08144680023E2
:100830004FF4807E4FF00F08002607E0282A08BFFB
:1008400047610136082E03F1040310D00EFA06F7B3
:1008500007EA0105BD42F4D108FA03F5AC430CFAEE
:1008600003F5482A44EA0504E8D10761E9E7446052
:10087000BDE8F08180B582B00820012100F024F8A5
:100880004020C1F20340019040F60040C4F2010054
:1008900001A9FFF797FF02B080BD00008068084003
:1008A00018BF012070470000416170470161704727
:1008B000002941F21C01C4F202010A680CBF22EABD
:1008C0000000104308607047002941F21801C4F28B
:1008D00002010A680CBF22EA00001043086070475A
:1008E00010B541F20404C4F20204226802F00C02C2
:1008F000082A41F20022C0F27A021CD12368D4F8FF
:1009000000C0C3F3834E5FEACC330EF1020C06D471
:1009100040F60012C0F23D020CFB02F20BE023682D
:100920009B0302D40CFB02F205E040F60012C0F279
:100930003D020CFB02F20260226840F64063C2F303
:100940000312C0F600039A5C0168D140416022683E
:10095000C2F302229A5C21FA02F282602268C2F398
:10096000C2229A5C40F63C63D140C1602268C0F666
:100970000003C2F381329A5CB1FBF2F1016110BD58
:1009800080B540F26600C2F20000007800F016FA6E
:10099000142000F0C5F940F26800C2F200000078AF
:1009A00000F00CFA80BD000080B500F001F880BDB9
:1009B00082B041F204000021C4F2020001910091D2
:1009C00050F8041C41F4803140F8041C50F8041C19
:1009D00001F400310091019901310191009919B997
:1009E0000199B1F5A06FF1D150F8041C890354BFEF
:1009F0000021012100910099012936D142F2000124
:100A0000C4F202010A6842F010020A600A6822F089
:100A100007020A600A6842F002020A600168016087
:100A200001680160016841F480610160016821F49E
:100A30007C110160016841F4E811016050F8041C68
:100A400041F0807140F8041C50F8041C8901FBD56A
:100A5000016821F003010160016841F002010160B9
:100A6000016801F00C010829FAD102B070470000BA
:100A700080B541F20000C4F202000168002241F09A
:100A8000010101604168CFF6FF0211404160016839
:100A90004FF6FF72CFF6F66211400160016821F453
:100AA00080210160416821F4FE0141604FF41F0183
:100AB0008160FFF779FF4EF60850CEF200004FF04C
:100AC0000061016080BD00000288002942F001033E
:100AD00008BF22F00103038070470000808C70473C
:100AE0008184704740F6FF33B0F800C0C4F20003C1
:100AF00098420FDCB0F1804F1ED040F20043C4F2A8
:100B00000003984218D040F60003C4F20003984254
:100B100012D016E040F60043C4F2000398420BD016
:100B200043F20043C4F20103984205D042F6004369
:100B3000C4F20103984204D14B882CF0700243EABE
:100B4000020C41F2004240F48063C4F2000293427E
:100B500004D0CA882CF4407342EA030CA0F800C009
:100B60008A888285A0F18042A2F596320B884FEAEE
:100B7000B222072A038507D8012303FA02F212F0F2
:100B8000E50F1CBF097A01860121818270470000B0
:100B900070B586B04FF480400121FFF795FE042028
:100BA00001210426FFF790FE40F2002040F60004E9
:100BB000C1F60300C4F2010405AD059020462946A4
:100BC000FFF700FE4FF48060ADF814002046294680
:100BD0008DF81760FFF7F6FD4FF4165001900020D6
:100BE0004FF4402104F5405402900391ADF81000F9
:100BF00001A9204600F036F82046012100F022F835
:100C000006B070BDB0B543F600050446C4F2010558
:100C10002846802100F020F80028F9D028462146F7
:100C200000F07AF8B0BD000010B50178002908BFC7
:100C300010BD441EC8B2FFF7E5FFA17801340029BA
:100C4000F8D110BD8289002942F4005308BF22F474
:100C500000538381704700000088084018BF0120BE
:100C60007047000070B586B00446008A0D46C988FA
:100C700020F4405008432082A0894EF6F31108402A
:100C8000A9882A896B89084310431843A081A08A48
:100C9000A98920F44070084301AEA0823046FFF7D6
:100CA0001FFE43F6000106F10800C4F201018C4268
:100CB00008BF06F10C0000681922B4F90C1050436B
:100CC0002A680223002948BF012302FA03F1B0FB7E
:100CD000F1F048F21F51C5F2EB11A0FB01235A09B4
:100CE0006FF0630302FB0300B4F90C300426002B01
:100CF00048BF032600FA06F000F13200A0FB010114
:100D00004FF00F0048BF072000EA511040EA0210E0
:100D1000208106B070BD00006FF35F2181807047B5
:100D200010B5002808BF10BD044600BF4FF080403A
:100D30000021FFF7D5FE00BF4FF08040FFF7CEFE49
:100D4000B0F57A7FF8D3013CF0D110BD8EB000F041
:100D50005DF8FFF78FFDFFF71BFF40F60040C4F280
:100D600001004021FFF7A2FD40F26006C2F200063A
:100D70000AA40DF1060500BFFFF754FBFFF700FEC4
:100D80003378B27828462146FFF714FA2846FFF751
:100D90004BFFC820FFF7C4FFEEE700BF4E68696550
:100DA0007420646F3A202564B0432C20446F206186
:100DB0006D3A20256425250D0A000000F0B581B0AC
:100DC00040F6000504460027C4F20105284601212B
:100DD00066B2FFF76BFDB6F1FF3F4FF004004FF036
:100DE0000106C8BF0120C8BF0426FFF799FF2846A7
:100DF0000121FFF759FD3046FFF792FF6400072FEE
:100E000007F10107E2D301B0F0BD000080B584B066
:100E100001200121FFF74CFD4FF6FF70ADF80800EF
:100E20004720019001A94FF08040FFF75BFE4FF093
:100E300080400121FFF748FE04B080BD020406088F
:100E40000000000001020304010203040607080970
:100E5000600E000800000020700600002801000855
:04000005080000ED02
:00000001FF
